:100000000C9404010C9431010C9431010C943101D5
:100010000C9431010C9431010C9431010C94310198
:100020000C9431010C9431010C9431010C94310188
:100030000C9431010C9431010C9431010C94310178
:100040000C9431010C9431010C9431010C94310168
:100050000C9431010C9431010C9431010C944E0735
:100060000C9431010C946A020C94B2030C9431018B
:100070000C9431010C9431010C9431010C94310138
:100080000C9431010C9431010C9431010C94310128
:100090000C94AA020C94F1030C9431010C943101DC
:1000A0000C9431010C9431010C9431010C94310108
:1000B0000C9431010C9431010C9431010C943101F8
:1000C0000C9431010C9431010C9431010C94EA022E
:1000D0000C9430040C9431010C942A030C946F049A
:1000E0000C94310100002100240027002A002D007B
:1000F0003000330001010000040107010A01000083
:100100002200250028002B002E00310034000201BF
:100110000000050108010B0100002000230026005B
:1001200029002C002F00320000010000030106010D
:10013000090105050505070508080808020202026D
:100140000A0A080804040404010101010101010173
:100150000303030303030303040707070C0C0C0C3E
:100160000C0C0C0C02020202060606060606060627
:100170000B0B0B0B0B0B0B0B0102102020080810B4
:100180002040102040800201020108040201010207
:1001900004081020408080402010080402018004E0
:1001A000020180402010080402010804020101023B
:1001B0000408102040800102040810204080000044
:1001C000090A02080B0C0D070603040100000000D9
:1001D000000000000000000000000000000000001F
:1001E0000000000000000000000011100F000000DF
:1001F00000000000000000000000000000000000FF
:10020000000000008F01DF0511241FBECFEFD1E2F7
:10021000DEBFCDBF00E00CBF12E0A0E0B2E0E6ED33
:10022000F2E100E00BBF02C007900D92A031B107D0
:10023000D9F71BBE14E0A0E1B2E001C01D92A93CB9
:10024000B107E1F712E0C8E0D2E004C02297FE0156
:100250000E946509C430D107C9F70E943F070C947A
:1002600069090C940000FC01608341832283089596
:100270000F931F938C01FC01828161E00E940E09A3
:10028000F80113821F910F9108950F931F938C0112
:10029000FC01828160E00E940E0981E0F801838305
:1002A0001F910F9108951F93CF93DF93EC01162FA9
:1002B0008B81882319F4CE010E9445018981612F29
:1002C0000E940E09888161E00E940E0982E090E0A0
:1002D0000E94EF07888160E00E940E09DF91CF91B4
:1002E0001F9108950F931F938C01FC01808161E0A1
:1002F0000E945B08F801818161E00E945B08F801BF
:10030000828161E00E945B08C8010E943801F80107
:10031000808160E00E940E091F910F91089580E195
:1003200092E061E142E123E10E94330184E192E045
:100330006EE04FE020E10E94330108951F93CF93B8
:10034000DF93EC01162F12C080E192E0612F0E9432
:10035000530160E0112309F461E084E192E00E941E
:10036000530182EE94E00E94EF0721971C161D06B0
:100370005CF3DF91CF911F910895DF92EF92FF928E
:100380000F931F93DF93CF9300D00F92CDB7DEB7BB
:1003900069837A838B839C838A01D22E7E010894A1
:1003A000E11CF11C0CC0C7016D2D0E94530165E0DA
:1003B00070E080E090E00E94960701501040101617
:1003C00011068CF30F900F900F900F90CF91DF914B
:1003D0001F910F91FF90EF90DF90089588E394E0D4
:1003E0000E943505892B09F462C088E394E00E94DD
:1003F0006605833609F451C0843634F48136E1F061
:10040000823609F054C02EC0843621F0853609F0BA
:100410004EC009C080E192E00E94380184E192E080
:100420000E943801089580E192E00E94450184E134
:1004300092E00E94450108956091100270911102AE
:10044000809112029091130240E253E021E00E9459
:10045000BD01609110027091110280911202909181
:10046000130215C06091140270911502809116025A
:100470009091170240E253E021E00E94BD0160919B
:10048000140270911502809116029091170240E2B9
:1004900053E020E00E94BD01089580E293E061E016
:1004A0000E949E0180E293E060E00E949E01089518
:1004B00088E394E040E855E260E070E00E94AE041A
:1004C00080E192E00E94720184E192E00E94720158
:1004D000089508951F920F920FB60F920BB60F92C8
:1004E00011242F933F934F938F939F93EF93FF93F9
:1004F0008091C00082FD1DC04091C600209158022D
:10050000309159022F5F3F4F2F73307080915A0204
:1005100090915B022817390771F0E0915802F09131
:100520005902E85EFD4F40833093590220935802F0
:1005300002C08091C600FF91EF919F918F914F91E2
:100540003F912F910F900BBE0F900FBE0F901F90F9
:10055000189508951F920F920FB60F920BB60F9237
:1005600011242F933F934F938F939F93EF93FF9378
:100570008091C80082FD1DC04091CE002091E00214
:100580003091E1022F5F3F4F2F7330708091E20274
:100590009091E3022817390771F0E091E002F091A1
:1005A000E102E056FD4F40833093E1022093E002E8
:1005B00002C08091CE00FF91EF919F918F914F915A
:1005C0003F912F910F900BBE0F900FBE0F901F9079
:1005D000189508951F920F920FB60F920BB60F92B7
:1005E00011242F933F934F938F939F93EF93FF93F8
:1005F0008091D00082FD1DC04091D60020916803FB
:10060000309169032F5F3F4F2F73307080916A03E1
:1006100090916B032817390771F0E0916803F0910E
:100620006903E85DFC4F40833093690320936803BE
:1006300002C08091D600FF91EF919F918F914F91D1
:100640003F912F910F900BBE0F900FBE0F901F90F8
:10065000189508951F920F920FB60F920BB60F9236
:1006600011242F933F934F938F939F93EF93FF9377
:100670008091300182FD1DC0409136012091F00330
:100680003091F1032F5F3F4F2F7330708091F20351
:100690009091F3032817390771F0E091F003F0917E
:1006A000F103E055FC4F40833093F1032093F003B6
:1006B00002C080913601FF91EF919F918F914F91F0
:1006C0003F912F910F900BBE0F900FBE0F901F9078
:1006D0001895E0914404F0914504E05CFF4F81914E
:1006E000919120813181821B930B8F739070892BA4
:1006F00011F00E946902E0916604F0916704E05CE9
:10070000FF4F8191919120813181821B930B8F73D7
:100710009070892B11F00E94A902E0918804F09159
:100720008904E05CFF4F8191919120813181821B8E
:10073000930B8F739070892B11F00E94E902E09166
:10074000AA04F091AB04E05CFF4F8191919120816C
:100750003181821B930B8F739070892B11F00E9453
:10076000290308951F920F920FB60F920BB60F92A6
:1007700011242F933F938F939F93EF93FF93209197
:100780009C0230919D0280919E0290919F022817B9
:10079000390731F48091C1008F7D8093C10014C06E
:1007A000E0919E02F0919F02E45AFD4F20818091DA
:1007B0009E0290919F0201968F73907090939F027A
:1007C00080939E022093C600FF91EF919F918F919D
:1007D0003F912F910F900BBE0F900FBE0F901F9067
:1007E00018951F920F920FB60F920BB60F9211240D
:1007F0002F933F938F939F93EF93FF932091240325
:1008000030912503809126039091270328173907FB
:1008100031F48091C9008F7D8093C90014C0E091AC
:100820002603F0912703EC51FD4F20818091260390
:100830009091270301968F73907090932703809374
:1008400026032093CE00FF91EF919F918F913F91CE
:100850002F910F900BBE0F900FBE0F901F90189509
:100860001F920F920FB60F920BB60F9211242F9377
:100870003F938F939F93EF93FF932091AC0330911D
:10088000AD038091AE039091AF032817390731F47F
:100890008091D1008F7D8093D10014C0E091AE0390
:1008A000F091AF03E459FC4F20818091AE03909109
:1008B000AF0301968F7390709093AF038093AE0354
:1008C0002093D600FF91EF919F918F913F912F91AF
:1008D0000F900BBE0F900FBE0F901F9018951F9298
:1008E0000F920FB60F920BB60F9211242F933F93D6
:1008F0008F939F93EF93FF932091340430913504AD
:1009000080913604909137042817390731F480918B
:1009100031018F7D8093310114C0E0913604F09154
:100920003704EC50FC4F20818091360490913704BD
:1009300001968F73907090933704809336042093C0
:100940003601FF91EF919F918F913F912F910F90E1
:100950000BBE0F900FBE0F901F901895AF92BF92D5
:10096000DF92EF92FF920F931F93CF93DF93EC01EF
:100970007A018B01DD24403081EE580780E0680762
:1009800080E0780711F0DD24D39491E0A92EB12CFA
:10099000EC89FD89DD2069F0C50108A002C0880F3F
:1009A000991F0A94E2F7808360E079E08DE390E09C
:1009B00005C0108260E874E88EE190E0A80197011C
:1009C0000E94410921503040404050405695479583
:1009D0003795279580E12030380720F0DD2011F091
:1009E000DD24D6CFE889F9893083EA89FB89208321
:1009F00019A2EE89FF89408121E030E0C9010C8C09
:100A000002C0880F991F0A94E2F7482B4083EE89B1
:100A1000FF894081C9010D8C02C0880F991F0A947B
:100A2000E2F7482B4083EE89FF894081C9010E8C93
:100A300002C0880F991F0A94E2F7482B4083EE8981
:100A4000FF8980810F8C02C0220F331F0A94E2F7C6
:100A5000209528232083DF91CF911F910F91FF9044
:100A6000EF90DF90BF90AF900895DC011C96ED9160
:100A7000FC911D97E05CFF4F219131918081918124
:100A8000281B390B2F733070C9010895DC011C96A7
:100A9000ED91FC911D97E05CFF4F20813181E05486
:100AA000F040DF01AE5BBF4F8D919C9111972817ED
:100AB000390719F42FEF3FEF07C08D919C91E80F94
:100AC000F91F8081282F30E0C9010895DC011C96B0
:100AD000ED91FC911D97E05CFF4F20813181E05446
:100AE000F040DF01AE5BBF4F8D919C9111972817AD
:100AF000390719F42FEF3FEF10C08D919C9111979A
:100B0000E80FF91F20818D919C91119701968F73A9
:100B1000907011969C938E9330E0C9010895DC018A
:100B200091968C919197882339F05496ED91FC9190
:100B30005597808186FFF9CF91961C920895CF93A7
:100B4000DF93EC01EE85FF85E05CFF4F2081318172
:100B5000E054F0402F5F3F4F2F733070DF01AE5BEA
:100B6000BF4F8D919C91119728173907D1F3E05C05
:100B7000FF4F80819181E054F040E80FF91F6083BE
:100B8000EE85FF85E05CFF4F31832083EE89FF898E
:100B9000208181E090E00F8C02C0880F991F0A9499
:100BA000E2F7282B208381E089A3EC89FD898081ED
:100BB0008064808381E090E0DF91CF9108951F935E
:100BC00010923B0410923A0428EE33E040E050E0EB
:100BD00020933C0430933D0440933E0450933F04E3
:100BE00064E072E0709339046093380488E192E025
:100BF00090934504809344048CE592E090934704DD
:100C00008093460485EC90E09093490480934804D7
:100C100084EC90E090934B0480934A0480EC90E045
:100C200090934D0480934C0481EC90E090934F049A
:100C300080934E0482EC90E0909351048093500492
:100C400086EC90E0909353048093520414E0109348
:100C50005404B3E0B0935504A7E0A0935604F5E024
:100C6000F0935704E1E0E093580410925D04109271
:100C70005C0420935E0430935F04409360045093BF
:100C8000610470935B0460935A0480EA92E090934D
:100C900067048093660484EE92E0909369048093E5
:100CA00068048DEC90E090936B0480936A048CEC64
:100CB00090E090936D0480936C0488EC90E09093A6
:100CC0006F0480936E0489EC90E09093710480939C
:100CD00070048AEC90E090937304809372048EEC1D
:100CE00090E0909375048093740410937604B0930D
:100CF0007704A0937804F0937904E0937A04109237
:100D00007F0410927E0420938004309381044093EA
:100D100082045093830470937D0460937C0488E282
:100D200093E090938904809388048CE693E09093F9
:100D30008B0480938A0485ED90E090938D048093DA
:100D40008C0484ED90E090938F0480938E0480ED6A
:100D500090E0909391048093900481ED90E09093C3
:100D600093048093920482ED90E090939504809395
:100D7000940486ED90E090939704809396041093EA
:100D80009804B0939904A0939A04F0939B04E09381
:100D90009C041092A1041092A0042093A20430930A
:100DA000A3044093A4045093A50470939F046093FC
:100DB0009E0480EB93E09093AB048093AA0484EFAD
:100DC00093E09093AD048093AC0485E391E090931D
:100DD000AF048093AE0484E391E09093B1048093D8
:100DE000B00480E391E09093B3048093B20481E374
:100DF00091E09093B5048093B40482E391E09093E2
:100E0000B7048093B60486E391E09093B90480938D
:100E1000B8041093BA04B093BB04A093BC04F0933D
:100E2000BD04E093BE041F910895CF92DF92EF922C
:100E3000FF920F931F93CF93DF937C016B018A0185
:100E4000C0E0D0E00FC0D6016D916D01D701ED91EA
:100E5000FC910190F081E02DC7011995C80FD91FB1
:100E6000015010400115110571F7CE01DF91CF91AE
:100E70001F910F91FF90EF90DF90CF900895CF9347
:100E8000DF930E94F9070E945802C9E6D3E00E944E
:100E9000EE012097E1F30E946903F9CF1F920F92B0
:100EA0000FB60F9211242F933F938F939F93AF937D
:100EB000BF938091C4049091C504A091C604B091E1
:100EC000C7043091C8040196A11DB11D232F2D5FC9
:100ED0002D3720F02D570196A11DB11D2093C80478
:100EE0008093C4049093C504A093C604B093C70430
:100EF0008091C0049091C104A091C204B091C30438
:100F00000196A11DB11D8093C0049093C104A093CC
:100F1000C204B093C304BF91AF919F918F913F9151
:100F20002F910F900FBE0F901F9018959B01AC0151
:100F30007FB7F8948091C0049091C104A091C2043D
:100F4000B091C30466B5A89B05C06F3F19F0019628
:100F5000A11DB11D7FBFBA2FA92F982F8827860FFB
:100F6000911DA11DB11D62E0880F991FAA1FBB1F13
:100F70006A95D1F7BC012DC0FFB7F8948091C004E9
:100F80009091C104A091C204B091C304E6B5A89B9E
:100F900005C0EF3F19F00196A11DB11DFFBFBA2F8B
:100FA000A92F982F88278E0F911DA11DB11DE2E05A
:100FB000880F991FAA1FBB1FEA95D1F7861B970BB5
:100FC000885E9340C8F22150304040405040685104
:100FD0007C4F211531054105510571F608950197A2
:100FE00039F0880F991F880F991F02970197F1F721
:100FF0000895789484B5826084BD84B5816084BD91
:1010000085B5826085BD85B5816085BDEEE6F0E081
:10101000808181608083E1E8F0E0108280818260DD
:101020008083808181608083E0E8F0E0808181605E
:101030008083E1EBF0E0808184608083E0EBF0E08E
:10104000808181608083E1E9F0E08081826080833B
:10105000808181608083E0E9F0E08081816080832D
:10106000E1EAF0E08081826080838081816080831A
:10107000E0EAF0E0808181608083E1E2F1E080815C
:1010800082608083808181608083E0E2F1E0808102
:1010900081608083EAE7F0E08081846080838081E2
:1010A000826080838081816080838081806880838A
:1010B0001092C1000895CF93DF93482F50E0CA01EA
:1010C00088589E4FFC0134914E5C5E4FFA0184912A
:1010D000882369F190E0880F991FFC01EC51FF4FC4
:1010E000A591B491FC01E250FF4FC591D4916623C4
:1010F00051F42FB7F8948C91932F909589238C936A
:10110000888189230BC0623061F42FB7F8948C91E9
:10111000932F909589238C938881832B88832FBF6D
:1011200006C09FB7F8948C91832B8C939FBFDF915F
:10113000CF910895893009F449C08A30A0F48430F1
:1011400051F1853040F4823079F1833000F58130FF
:1011500009F063C026C0873079F1883098F5863071
:1011600009F05BC025C08D3009F442C08E3028F4F0
:101170008B30B1F18C30C0F52DC0803109F442C004
:10118000813109F445C08F3009F047C037C08091E4
:1011900080008F7703C0809180008F7D80938000D6
:1011A000089584B58F7702C084B58F7D84BD08957E
:1011B0008091B0008F7703C08091B0008F7D8093C5
:1011C000B0000895809190008F7707C080919000C3
:1011D0008F7D03C080919000877F80939000089559
:1011E0008091A0008F7707C08091A0008F7D03C001
:1011F0008091A000877F8093A000089580912001B6
:101200008F7703C0809120018F7D80932001089506
:1012100080912001877F809320010895FF920F9392
:101220001F93F62E482F50E0CA0182549E4FFC01B6
:101230002491CA0188589E4FFC0114914E5C5E4F68
:10124000FA0104910023C9F0222319F0822F0E9491
:101250009A08E02FF0E0EE0FFF1FE250FF4FA5913C
:10126000B4919FB7F894FF2021F48C9110958123BD
:1012700002C08C91812B8C939FBF1F910F91FF9087
:101280000895A1E21A2EAA1BBB1BFD010DC0AA1FC7
:10129000BB1FEE1FFF1FA217B307E407F50720F0DF
:1012A000A21BB30BE40BF50B661F771F881F991F5A
:1012B0001A9469F760957095809590959B01AC01A3
:1012C000BD01CF010895EE0FFF1F0590F491E02DB1
:0612D0001994F894FFCF11
:1012D600000000009F0515073505660546058F05C4
:00000001FF
